{
  "_format": "hh-sol-artifact-1",
  "contractName": "DappsNft",
  "sourceName": "contracts/NFT.sol",
  "abi": [
    {
      "inputs": [
        {
          "internalType": "address",
          "name": "defaultAdmin",
          "type": "address"
        },
        {
          "internalType": "address",
          "name": "pauser",
          "type": "address"
        }
      ],
      "stateMutability": "nonpayable",
      "type": "constructor"
    },
    {
      "inputs": [],
      "name": "AccessControlBadConfirmation",
      "type": "error"
    },
    {
      "inputs": [
        {
          "internalType": "address",
          "name": "account",
          "type": "address"
        },
        {
          "internalType": "bytes32",
          "name": "neededRole",
          "type": "bytes32"
        }
      ],
      "name": "AccessControlUnauthorizedAccount",
      "type": "error"
    },
    {
      "inputs": [
        {
          "internalType": "address",
          "name": "sender",
          "type": "address"
        },
        {
          "internalType": "uint256",
          "name": "tokenId",
          "type": "uint256"
        },
        {
          "internalType": "address",
          "name": "owner",
          "type": "address"
        }
      ],
      "name": "ERC721IncorrectOwner",
      "type": "error"
    },
    {
      "inputs": [
        {
          "internalType": "address",
          "name": "operator",
          "type": "address"
        },
        {
          "internalType": "uint256",
          "name": "tokenId",
          "type": "uint256"
        }
      ],
      "name": "ERC721InsufficientApproval",
      "type": "error"
    },
    {
      "inputs": [
        {
          "internalType": "address",
          "name": "approver",
          "type": "address"
        }
      ],
      "name": "ERC721InvalidApprover",
      "type": "error"
    },
    {
      "inputs": [
        {
          "internalType": "address",
          "name": "operator",
          "type": "address"
        }
      ],
      "name": "ERC721InvalidOperator",
      "type": "error"
    },
    {
      "inputs": [
        {
          "internalType": "address",
          "name": "owner",
          "type": "address"
        }
      ],
      "name": "ERC721InvalidOwner",
      "type": "error"
    },
    {
      "inputs": [
        {
          "internalType": "address",
          "name": "receiver",
          "type": "address"
        }
      ],
      "name": "ERC721InvalidReceiver",
      "type": "error"
    },
    {
      "inputs": [
        {
          "internalType": "address",
          "name": "sender",
          "type": "address"
        }
      ],
      "name": "ERC721InvalidSender",
      "type": "error"
    },
    {
      "inputs": [
        {
          "internalType": "uint256",
          "name": "tokenId",
          "type": "uint256"
        }
      ],
      "name": "ERC721NonexistentToken",
      "type": "error"
    },
    {
      "inputs": [],
      "name": "EnforcedPause",
      "type": "error"
    },
    {
      "inputs": [],
      "name": "ExpectedPause",
      "type": "error"
    },
    {
      "anonymous": false,
      "inputs": [
        {
          "indexed": true,
          "internalType": "address",
          "name": "owner",
          "type": "address"
        },
        {
          "indexed": true,
          "internalType": "address",
          "name": "approved",
          "type": "address"
        },
        {
          "indexed": true,
          "internalType": "uint256",
          "name": "tokenId",
          "type": "uint256"
        }
      ],
      "name": "Approval",
      "type": "event"
    },
    {
      "anonymous": false,
      "inputs": [
        {
          "indexed": true,
          "internalType": "address",
          "name": "owner",
          "type": "address"
        },
        {
          "indexed": true,
          "internalType": "address",
          "name": "operator",
          "type": "address"
        },
        {
          "indexed": false,
          "internalType": "bool",
          "name": "approved",
          "type": "bool"
        }
      ],
      "name": "ApprovalForAll",
      "type": "event"
    },
    {
      "anonymous": false,
      "inputs": [
        {
          "indexed": false,
          "internalType": "uint256",
          "name": "_fromTokenId",
          "type": "uint256"
        },
        {
          "indexed": false,
          "internalType": "uint256",
          "name": "_toTokenId",
          "type": "uint256"
        }
      ],
      "name": "BatchMetadataUpdate",
      "type": "event"
    },
    {
      "anonymous": false,
      "inputs": [
        {
          "indexed": false,
          "internalType": "uint256",
          "name": "_tokenId",
          "type": "uint256"
        }
      ],
      "name": "MetadataUpdate",
      "type": "event"
    },
    {
      "anonymous": false,
      "inputs": [
        {
          "indexed": false,
          "internalType": "address",
          "name": "account",
          "type": "address"
        }
      ],
      "name": "Paused",
      "type": "event"
    },
    {
      "anonymous": false,
      "inputs": [
        {
          "indexed": true,
          "internalType": "bytes32",
          "name": "role",
          "type": "bytes32"
        },
        {
          "indexed": true,
          "internalType": "bytes32",
          "name": "previousAdminRole",
          "type": "bytes32"
        },
        {
          "indexed": true,
          "internalType": "bytes32",
          "name": "newAdminRole",
          "type": "bytes32"
        }
      ],
      "name": "RoleAdminChanged",
      "type": "event"
    },
    {
      "anonymous": false,
      "inputs": [
        {
          "indexed": true,
          "internalType": "bytes32",
          "name": "role",
          "type": "bytes32"
        },
        {
          "indexed": true,
          "internalType": "address",
          "name": "account",
          "type": "address"
        },
        {
          "indexed": true,
          "internalType": "address",
          "name": "sender",
          "type": "address"
        }
      ],
      "name": "RoleGranted",
      "type": "event"
    },
    {
      "anonymous": false,
      "inputs": [
        {
          "indexed": true,
          "internalType": "bytes32",
          "name": "role",
          "type": "bytes32"
        },
        {
          "indexed": true,
          "internalType": "address",
          "name": "account",
          "type": "address"
        },
        {
          "indexed": true,
          "internalType": "address",
          "name": "sender",
          "type": "address"
        }
      ],
      "name": "RoleRevoked",
      "type": "event"
    },
    {
      "anonymous": false,
      "inputs": [
        {
          "indexed": true,
          "internalType": "address",
          "name": "from",
          "type": "address"
        },
        {
          "indexed": true,
          "internalType": "address",
          "name": "to",
          "type": "address"
        },
        {
          "indexed": true,
          "internalType": "uint256",
          "name": "tokenId",
          "type": "uint256"
        }
      ],
      "name": "Transfer",
      "type": "event"
    },
    {
      "anonymous": false,
      "inputs": [
        {
          "indexed": false,
          "internalType": "address",
          "name": "account",
          "type": "address"
        }
      ],
      "name": "Unpaused",
      "type": "event"
    },
    {
      "inputs": [],
      "name": "DEFAULT_ADMIN_ROLE",
      "outputs": [
        {
          "internalType": "bytes32",
          "name": "",
          "type": "bytes32"
        }
      ],
      "stateMutability": "view",
      "type": "function"
    },
    {
      "inputs": [],
      "name": "PAUSER_ROLE",
      "outputs": [
        {
          "internalType": "bytes32",
          "name": "",
          "type": "bytes32"
        }
      ],
      "stateMutability": "view",
      "type": "function"
    },
    {
      "inputs": [
        {
          "internalType": "address",
          "name": "to",
          "type": "address"
        },
        {
          "internalType": "uint256",
          "name": "tokenId",
          "type": "uint256"
        }
      ],
      "name": "approve",
      "outputs": [],
      "stateMutability": "nonpayable",
      "type": "function"
    },
    {
      "inputs": [
        {
          "internalType": "address",
          "name": "owner",
          "type": "address"
        }
      ],
      "name": "balanceOf",
      "outputs": [
        {
          "internalType": "uint256",
          "name": "",
          "type": "uint256"
        }
      ],
      "stateMutability": "view",
      "type": "function"
    },
    {
      "inputs": [
        {
          "internalType": "uint256",
          "name": "tokenId",
          "type": "uint256"
        }
      ],
      "name": "burn",
      "outputs": [],
      "stateMutability": "nonpayable",
      "type": "function"
    },
    {
      "inputs": [
        {
          "internalType": "uint256",
          "name": "tokenId",
          "type": "uint256"
        }
      ],
      "name": "getApproved",
      "outputs": [
        {
          "internalType": "address",
          "name": "",
          "type": "address"
        }
      ],
      "stateMutability": "view",
      "type": "function"
    },
    {
      "inputs": [
        {
          "internalType": "bytes32",
          "name": "role",
          "type": "bytes32"
        }
      ],
      "name": "getRoleAdmin",
      "outputs": [
        {
          "internalType": "bytes32",
          "name": "",
          "type": "bytes32"
        }
      ],
      "stateMutability": "view",
      "type": "function"
    },
    {
      "inputs": [
        {
          "internalType": "bytes32",
          "name": "role",
          "type": "bytes32"
        },
        {
          "internalType": "address",
          "name": "account",
          "type": "address"
        }
      ],
      "name": "grantRole",
      "outputs": [],
      "stateMutability": "nonpayable",
      "type": "function"
    },
    {
      "inputs": [
        {
          "internalType": "bytes32",
          "name": "role",
          "type": "bytes32"
        },
        {
          "internalType": "address",
          "name": "account",
          "type": "address"
        }
      ],
      "name": "hasRole",
      "outputs": [
        {
          "internalType": "bool",
          "name": "",
          "type": "bool"
        }
      ],
      "stateMutability": "view",
      "type": "function"
    },
    {
      "inputs": [
        {
          "internalType": "address",
          "name": "owner",
          "type": "address"
        },
        {
          "internalType": "address",
          "name": "operator",
          "type": "address"
        }
      ],
      "name": "isApprovedForAll",
      "outputs": [
        {
          "internalType": "bool",
          "name": "",
          "type": "bool"
        }
      ],
      "stateMutability": "view",
      "type": "function"
    },
    {
      "inputs": [],
      "name": "name",
      "outputs": [
        {
          "internalType": "string",
          "name": "",
          "type": "string"
        }
      ],
      "stateMutability": "view",
      "type": "function"
    },
    {
      "inputs": [
        {
          "internalType": "uint256",
          "name": "tokenId",
          "type": "uint256"
        }
      ],
      "name": "ownerOf",
      "outputs": [
        {
          "internalType": "address",
          "name": "",
          "type": "address"
        }
      ],
      "stateMutability": "view",
      "type": "function"
    },
    {
      "inputs": [],
      "name": "pause",
      "outputs": [],
      "stateMutability": "nonpayable",
      "type": "function"
    },
    {
      "inputs": [],
      "name": "paused",
      "outputs": [
        {
          "internalType": "bool",
          "name": "",
          "type": "bool"
        }
      ],
      "stateMutability": "view",
      "type": "function"
    },
    {
      "inputs": [
        {
          "internalType": "bytes32",
          "name": "role",
          "type": "bytes32"
        },
        {
          "internalType": "address",
          "name": "callerConfirmation",
          "type": "address"
        }
      ],
      "name": "renounceRole",
      "outputs": [],
      "stateMutability": "nonpayable",
      "type": "function"
    },
    {
      "inputs": [
        {
          "internalType": "bytes32",
          "name": "role",
          "type": "bytes32"
        },
        {
          "internalType": "address",
          "name": "account",
          "type": "address"
        }
      ],
      "name": "revokeRole",
      "outputs": [],
      "stateMutability": "nonpayable",
      "type": "function"
    },
    {
      "inputs": [
        {
          "internalType": "address",
          "name": "to",
          "type": "address"
        },
        {
          "internalType": "string",
          "name": "uri",
          "type": "string"
        }
      ],
      "name": "safeMint",
      "outputs": [],
      "stateMutability": "nonpayable",
      "type": "function"
    },
    {
      "inputs": [
        {
          "internalType": "address",
          "name": "from",
          "type": "address"
        },
        {
          "internalType": "address",
          "name": "to",
          "type": "address"
        },
        {
          "internalType": "uint256",
          "name": "tokenId",
          "type": "uint256"
        }
      ],
      "name": "safeTransferFrom",
      "outputs": [],
      "stateMutability": "nonpayable",
      "type": "function"
    },
    {
      "inputs": [
        {
          "internalType": "address",
          "name": "from",
          "type": "address"
        },
        {
          "internalType": "address",
          "name": "to",
          "type": "address"
        },
        {
          "internalType": "uint256",
          "name": "tokenId",
          "type": "uint256"
        },
        {
          "internalType": "bytes",
          "name": "data",
          "type": "bytes"
        }
      ],
      "name": "safeTransferFrom",
      "outputs": [],
      "stateMutability": "nonpayable",
      "type": "function"
    },
    {
      "inputs": [
        {
          "internalType": "address",
          "name": "operator",
          "type": "address"
        },
        {
          "internalType": "bool",
          "name": "approved",
          "type": "bool"
        }
      ],
      "name": "setApprovalForAll",
      "outputs": [],
      "stateMutability": "nonpayable",
      "type": "function"
    },
    {
      "inputs": [
        {
          "internalType": "bytes4",
          "name": "interfaceId",
          "type": "bytes4"
        }
      ],
      "name": "supportsInterface",
      "outputs": [
        {
          "internalType": "bool",
          "name": "",
          "type": "bool"
        }
      ],
      "stateMutability": "view",
      "type": "function"
    },
    {
      "inputs": [],
      "name": "symbol",
      "outputs": [
        {
          "internalType": "string",
          "name": "",
          "type": "string"
        }
      ],
      "stateMutability": "view",
      "type": "function"
    },
    {
      "inputs": [
        {
          "internalType": "uint256",
          "name": "tokenId",
          "type": "uint256"
        }
      ],
      "name": "tokenURI",
      "outputs": [
        {
          "internalType": "string",
          "name": "",
          "type": "string"
        }
      ],
      "stateMutability": "view",
      "type": "function"
    },
    {
      "inputs": [
        {
          "internalType": "address",
          "name": "from",
          "type": "address"
        },
        {
          "internalType": "address",
          "name": "to",
          "type": "address"
        },
        {
          "internalType": "uint256",
          "name": "tokenId",
          "type": "uint256"
        }
      ],
      "name": "transferFrom",
      "outputs": [],
      "stateMutability": "nonpayable",
      "type": "function"
    },
    {
      "inputs": [],
      "name": "unpause",
      "outputs": [],
      "stateMutability": "nonpayable",
      "type": "function"
    }
  ],
  "bytecode": "0x608060405234801561001057600080fd5b50604051613385380380613385833981810160405281019061003291906102fb565b6040518060400160405280600881526020017f44617070734e66740000000000000000000000000000000000000000000000008152506040518060400160405280600481526020017f444e46540000000000000000000000000000000000000000000000000000000081525081600090816100ad919061058b565b5080600190816100bd919061058b565b5050506000600760006101000a81548160ff0219169083151502179055506100ee6000801b8361012760201b60201c565b5061011f7f65d7a28e3265b37a6474929f336521b332c1681b933f6cb9f3376673440d862a8261012760201b60201c565b50505061065d565b6000610139838361022560201b60201c565b61021a5760016008600085815260200190815260200160002060000160008473ffffffffffffffffffffffffffffffffffffffff1673ffffffffffffffffffffffffffffffffffffffff16815260200190815260200160002060006101000a81548160ff0219169083151502179055506101b761029060201b60201c565b73ffffffffffffffffffffffffffffffffffffffff168273ffffffffffffffffffffffffffffffffffffffff16847f2f8788117e7eff1d82e926ec794901d17c78024a50270940304540a733656f0d60405160405180910390a46001905061021f565b600090505b92915050565b60006008600084815260200190815260200160002060000160008373ffffffffffffffffffffffffffffffffffffffff1673ffffffffffffffffffffffffffffffffffffffff16815260200190815260200160002060009054906101000a900460ff16905092915050565b600033905090565b600080fd5b600073ffffffffffffffffffffffffffffffffffffffff82169050919050565b60006102c88261029d565b9050919050565b6102d8816102bd565b81146102e357600080fd5b50565b6000815190506102f5816102cf565b92915050565b6000806040838503121561031257610311610298565b5b6000610320858286016102e6565b9250506020610331858286016102e6565b9150509250929050565b600081519050919050565b7f4e487b7100000000000000000000000000000000000000000000000000000000600052604160045260246000fd5b7f4e487b7100000000000000000000000000000000000000000000000000000000600052602260045260246000fd5b600060028204905060018216806103bc57607f821691505b6020821081036103cf576103ce610375565b5b50919050565b60008190508160005260206000209050919050565b60006020601f8301049050919050565b600082821b905092915050565b6000600883026104377fffffffffffffffffffffffffffffffffffffffffffffffffffffffffffffffff826103fa565b61044186836103fa565b95508019841693508086168417925050509392505050565b6000819050919050565b6000819050919050565b600061048861048361047e84610459565b610463565b610459565b9050919050565b6000819050919050565b6104a28361046d565b6104b66104ae8261048f565b848454610407565b825550505050565b600090565b6104cb6104be565b6104d6818484610499565b505050565b5b818110156104fa576104ef6000826104c3565b6001810190506104dc565b5050565b601f82111561053f57610510816103d5565b610519846103ea565b81016020851015610528578190505b61053c610534856103ea565b8301826104db565b50505b505050565b600082821c905092915050565b600061056260001984600802610544565b1980831691505092915050565b600061057b8383610551565b9150826002028217905092915050565b6105948261033b565b67ffffffffffffffff8111156105ad576105ac610346565b5b6105b782546103a4565b6105c28282856104fe565b600060209050601f8311600181146105f557600084156105e3578287015190505b6105ed858261056f565b865550610655565b601f198416610603866103d5565b60005b8281101561062b57848901518255600182019150602085019450602081019050610606565b868310156106485784890151610644601f891682610551565b8355505b6001600288020188555050505b505050505050565b612d198061066c6000396000f3fe608060405234801561001057600080fd5b50600436106101735760003560e01c80636352211e116100de578063a22cb46511610097578063d204c45e11610071578063d204c45e14610434578063d547741f14610450578063e63ab1e91461046c578063e985e9c51461048a57610173565b8063a22cb465146103cc578063b88d4fde146103e8578063c87b56dd1461040457610173565b80636352211e146102f657806370a08231146103265780638456cb591461035657806391d148541461036057806395d89b4114610390578063a217fddf146103ae57610173565b80632f2ff15d116101305780632f2ff15d1461025e57806336568abe1461027a5780633f4ba83a1461029657806342842e0e146102a057806342966c68146102bc5780635c975abb146102d857610173565b806301ffc9a71461017857806306fdde03146101a8578063081812fc146101c6578063095ea7b3146101f657806323b872dd14610212578063248a9ca31461022e575b600080fd5b610192600480360381019061018d919061207b565b6104ba565b60405161019f91906120c3565b60405180910390f35b6101b06104cc565b6040516101bd919061216e565b60405180910390f35b6101e060048036038101906101db91906121c6565b61055e565b6040516101ed9190612234565b60405180910390f35b610210600480360381019061020b919061227b565b61057a565b005b61022c600480360381019061022791906122bb565b610590565b005b61024860048036038101906102439190612344565b6105a0565b6040516102559190612380565b60405180910390f35b6102786004803603810190610273919061239b565b6105c0565b005b610294600480360381019061028f919061239b565b6105e2565b005b61029e61065d565b005b6102ba60048036038101906102b591906122bb565b610692565b005b6102d660048036038101906102d191906121c6565b6106b2565b005b6102e06106c9565b6040516102ed91906120c3565b60405180910390f35b610310600480360381019061030b91906121c6565b6106e0565b60405161031d9190612234565b60405180910390f35b610340600480360381019061033b91906123db565b6106f2565b60405161034d9190612417565b60405180910390f35b61035e6107ac565b005b61037a6004803603810190610375919061239b565b6107e1565b60405161038791906120c3565b60405180910390f35b61039861084c565b6040516103a5919061216e565b60405180910390f35b6103b66108de565b6040516103c39190612380565b60405180910390f35b6103e660048036038101906103e1919061245e565b6108e5565b005b61040260048036038101906103fd91906125d3565b6108fb565b005b61041e600480360381019061041991906121c6565b610918565b60405161042b919061216e565b60405180910390f35b61044e600480360381019061044991906126f7565b61092a565b005b61046a6004803603810190610465919061239b565b61095e565b005b610474610980565b6040516104819190612380565b60405180910390f35b6104a4600480360381019061049f9190612753565b6109a4565b6040516104b191906120c3565b60405180910390f35b60006104c582610a38565b9050919050565b6060600080546104db906127c2565b80601f0160208091040260200160405190810160405280929190818152602001828054610507906127c2565b80156105545780601f1061052957610100808354040283529160200191610554565b820191906000526020600020905b81548152906001019060200180831161053757829003601f168201915b5050505050905090565b600061056982610ab2565b5061057382610b3a565b9050919050565b61058c8282610587610b77565b610b7f565b5050565b61059b838383610b91565b505050565b600060086000838152602001908152602001600020600101549050919050565b6105c9826105a0565b6105d281610c93565b6105dc8383610ca7565b50505050565b6105ea610b77565b73ffffffffffffffffffffffffffffffffffffffff168173ffffffffffffffffffffffffffffffffffffffff161461064e576040517f6697b23200000000000000000000000000000000000000000000000000000000815260040160405180910390fd5b6106588282610d99565b505050565b7f65d7a28e3265b37a6474929f336521b332c1681b933f6cb9f3376673440d862a61068781610c93565b61068f610e8c565b50565b6106ad838383604051806020016040528060008152506108fb565b505050565b6106c56000826106c0610b77565b610eef565b5050565b6000600760009054906101000a900460ff16905090565b60006106eb82610ab2565b9050919050565b60008073ffffffffffffffffffffffffffffffffffffffff168273ffffffffffffffffffffffffffffffffffffffff16036107655760006040517f89c62b6400000000000000000000000000000000000000000000000000000000815260040161075c9190612234565b60405180910390fd5b600360008373ffffffffffffffffffffffffffffffffffffffff1673ffffffffffffffffffffffffffffffffffffffff168152602001908152602001600020549050919050565b7f65d7a28e3265b37a6474929f336521b332c1681b933f6cb9f3376673440d862a6107d681610c93565b6107de610f05565b50565b60006008600084815260200190815260200160002060000160008373ffffffffffffffffffffffffffffffffffffffff1673ffffffffffffffffffffffffffffffffffffffff16815260200190815260200160002060009054906101000a900460ff16905092915050565b60606001805461085b906127c2565b80601f0160208091040260200160405190810160405280929190818152602001828054610887906127c2565b80156108d45780601f106108a9576101008083540402835291602001916108d4565b820191906000526020600020905b8154815290600101906020018083116108b757829003601f168201915b5050505050905090565b6000801b81565b6108f76108f0610b77565b8383610f68565b5050565b610906848484610590565b610912848484846110d7565b50505050565b60606109238261128e565b9050919050565b60006009600081548092919061093f90612822565b91905055905061094f83826113a1565b61095981836113bf565b505050565b610967826105a0565b61097081610c93565b61097a8383610d99565b50505050565b7f65d7a28e3265b37a6474929f336521b332c1681b933f6cb9f3376673440d862a81565b6000600560008473ffffffffffffffffffffffffffffffffffffffff1673ffffffffffffffffffffffffffffffffffffffff16815260200190815260200160002060008373ffffffffffffffffffffffffffffffffffffffff1673ffffffffffffffffffffffffffffffffffffffff16815260200190815260200160002060009054906101000a900460ff16905092915050565b60007f7965db0b000000000000000000000000000000000000000000000000000000007bffffffffffffffffffffffffffffffffffffffffffffffffffffffff1916827bffffffffffffffffffffffffffffffffffffffffffffffffffffffff19161480610aab5750610aaa8261141b565b5b9050919050565b600080610abe8361147c565b9050600073ffffffffffffffffffffffffffffffffffffffff168173ffffffffffffffffffffffffffffffffffffffff1603610b3157826040517f7e273289000000000000000000000000000000000000000000000000000000008152600401610b289190612417565b60405180910390fd5b80915050919050565b60006004600083815260200190815260200160002060009054906101000a900473ffffffffffffffffffffffffffffffffffffffff169050919050565b600033905090565b610b8c83838360016114b9565b505050565b600073ffffffffffffffffffffffffffffffffffffffff168273ffffffffffffffffffffffffffffffffffffffff1603610c035760006040517f64a0ae92000000000000000000000000000000000000000000000000000000008152600401610bfa9190612234565b60405180910390fd5b6000610c178383610c12610b77565b610eef565b90508373ffffffffffffffffffffffffffffffffffffffff168173ffffffffffffffffffffffffffffffffffffffff1614610c8d578382826040517f64283d7b000000000000000000000000000000000000000000000000000000008152600401610c849392919061286a565b60405180910390fd5b50505050565b610ca481610c9f610b77565b61167e565b50565b6000610cb383836107e1565b610d8e5760016008600085815260200190815260200160002060000160008473ffffffffffffffffffffffffffffffffffffffff1673ffffffffffffffffffffffffffffffffffffffff16815260200190815260200160002060006101000a81548160ff021916908315150217905550610d2b610b77565b73ffffffffffffffffffffffffffffffffffffffff168273ffffffffffffffffffffffffffffffffffffffff16847f2f8788117e7eff1d82e926ec794901d17c78024a50270940304540a733656f0d60405160405180910390a460019050610d93565b600090505b92915050565b6000610da583836107e1565b15610e815760006008600085815260200190815260200160002060000160008473ffffffffffffffffffffffffffffffffffffffff1673ffffffffffffffffffffffffffffffffffffffff16815260200190815260200160002060006101000a81548160ff021916908315150217905550610e1e610b77565b73ffffffffffffffffffffffffffffffffffffffff168273ffffffffffffffffffffffffffffffffffffffff16847ff6391f5c32d9c69d2a47ea670b442974b53935d1edc7fd64eb21e047a839171b60405160405180910390a460019050610e86565b600090505b92915050565b610e946116cf565b6000600760006101000a81548160ff0219169083151502179055507f5db9ee0a495bf2e6ff9c91a7834c1ba4fdd244a5e8aa4e537bd38aeae4b073aa610ed8610b77565b604051610ee59190612234565b60405180910390a1565b6000610efc84848461170f565b90509392505050565b610f0d61172d565b6001600760006101000a81548160ff0219169083151502179055507f62e78cea01bee320cd4e420270b5ea74000d11b0c9f74754ebdbfc544b05a258610f51610b77565b604051610f5e9190612234565b60405180910390a1565b600073ffffffffffffffffffffffffffffffffffffffff168273ffffffffffffffffffffffffffffffffffffffff1603610fd957816040517f5b08ba18000000000000000000000000000000000000000000000000000000008152600401610fd09190612234565b60405180910390fd5b80600560008573ffffffffffffffffffffffffffffffffffffffff1673ffffffffffffffffffffffffffffffffffffffff16815260200190815260200160002060008473ffffffffffffffffffffffffffffffffffffffff1673ffffffffffffffffffffffffffffffffffffffff16815260200190815260200160002060006101000a81548160ff0219169083151502179055508173ffffffffffffffffffffffffffffffffffffffff168373ffffffffffffffffffffffffffffffffffffffff167f17307eab39ab6107e8899845ad3d59bd9653f200f220920489ca2b5937696c31836040516110ca91906120c3565b60405180910390a3505050565b60008373ffffffffffffffffffffffffffffffffffffffff163b1115611288578273ffffffffffffffffffffffffffffffffffffffff1663150b7a0261111b610b77565b8685856040518563ffffffff1660e01b815260040161113d94939291906128f6565b6020604051808303816000875af192505050801561117957506040513d601f19601f820116820180604052508101906111769190612957565b60015b6111fd573d80600081146111a9576040519150601f19603f3d011682016040523d82523d6000602084013e6111ae565b606091505b5060008151036111f557836040517f64a0ae920000000000000000000000000000000000000000000000000000000081526004016111ec9190612234565b60405180910390fd5b805181602001fd5b63150b7a0260e01b7bffffffffffffffffffffffffffffffffffffffffffffffffffffffff1916817bffffffffffffffffffffffffffffffffffffffffffffffffffffffff19161461128657836040517f64a0ae9200000000000000000000000000000000000000000000000000000000815260040161127d9190612234565b60405180910390fd5b505b50505050565b606061129982610ab2565b5060006006600084815260200190815260200160002080546112ba906127c2565b80601f01602080910402602001604051908101604052809291908181526020018280546112e6906127c2565b80156113335780601f1061130857610100808354040283529160200191611333565b820191906000526020600020905b81548152906001019060200180831161131657829003601f168201915b50505050509050600061134461176e565b9050600081510361135957819250505061139c565b60008251111561138e5780826040516020016113769291906129c0565b6040516020818303038152906040529250505061139c565b61139784611785565b925050505b919050565b6113bb8282604051806020016040528060008152506117ee565b5050565b806006600084815260200190815260200160002090816113df9190612b90565b507ff8e1a15aba9398e019f0b49df1a4fde98ee17ae345cb5f6b5e2c27f5033e8ce78260405161140f9190612417565b60405180910390a15050565b6000634906490660e01b7bffffffffffffffffffffffffffffffffffffffffffffffffffffffff1916827bffffffffffffffffffffffffffffffffffffffffffffffffffffffff1916148061147557506114748261180a565b5b9050919050565b60006002600083815260200190815260200160002060009054906101000a900473ffffffffffffffffffffffffffffffffffffffff169050919050565b80806114f25750600073ffffffffffffffffffffffffffffffffffffffff168273ffffffffffffffffffffffffffffffffffffffff1614155b1561162657600061150284610ab2565b9050600073ffffffffffffffffffffffffffffffffffffffff168373ffffffffffffffffffffffffffffffffffffffff161415801561156d57508273ffffffffffffffffffffffffffffffffffffffff168173ffffffffffffffffffffffffffffffffffffffff1614155b8015611580575061157e81846109a4565b155b156115c257826040517fa9fbf51f0000000000000000000000000000000000000000000000000000000081526004016115b99190612234565b60405180910390fd5b811561162457838573ffffffffffffffffffffffffffffffffffffffff168273ffffffffffffffffffffffffffffffffffffffff167f8c5be1e5ebec7d5bd14f71427d1e84f3dd0314c0f7b2291e5b200ac8c7c3b92560405160405180910390a45b505b836004600085815260200190815260200160002060006101000a81548173ffffffffffffffffffffffffffffffffffffffff021916908373ffffffffffffffffffffffffffffffffffffffff16021790555050505050565b61168882826107e1565b6116cb5780826040517fe2517d3f0000000000000000000000000000000000000000000000000000000081526004016116c2929190612c62565b60405180910390fd5b5050565b6116d76106c9565b61170d576040517f8dfc202b00000000000000000000000000000000000000000000000000000000815260040160405180910390fd5b565b600061171961172d565b6117248484846118ec565b90509392505050565b6117356106c9565b1561176c576040517fd93c066500000000000000000000000000000000000000000000000000000000815260040160405180910390fd5b565b606060405180602001604052806000815250905090565b606061179082610ab2565b50600061179b61176e565b905060008151116117bb57604051806020016040528060008152506117e6565b806117c584611b06565b6040516020016117d69291906129c0565b6040516020818303038152906040525b915050919050565b6117f88383611bd4565b61180560008484846110d7565b505050565b60007f80ac58cd000000000000000000000000000000000000000000000000000000007bffffffffffffffffffffffffffffffffffffffffffffffffffffffff1916827bffffffffffffffffffffffffffffffffffffffffffffffffffffffff191614806118d557507f5b5e139f000000000000000000000000000000000000000000000000000000007bffffffffffffffffffffffffffffffffffffffffffffffffffffffff1916827bffffffffffffffffffffffffffffffffffffffffffffffffffffffff1916145b806118e557506118e482611ccd565b5b9050919050565b6000806118f88461147c565b9050600073ffffffffffffffffffffffffffffffffffffffff168373ffffffffffffffffffffffffffffffffffffffff161461193a57611939818486611d37565b5b600073ffffffffffffffffffffffffffffffffffffffff168173ffffffffffffffffffffffffffffffffffffffff16146119cb5761197c6000856000806114b9565b6001600360008373ffffffffffffffffffffffffffffffffffffffff1673ffffffffffffffffffffffffffffffffffffffff168152602001908152602001600020600082825403925050819055505b600073ffffffffffffffffffffffffffffffffffffffff168573ffffffffffffffffffffffffffffffffffffffff1614611a4e576001600360008773ffffffffffffffffffffffffffffffffffffffff1673ffffffffffffffffffffffffffffffffffffffff168152602001908152602001600020600082825401925050819055505b846002600086815260200190815260200160002060006101000a81548173ffffffffffffffffffffffffffffffffffffffff021916908373ffffffffffffffffffffffffffffffffffffffff160217905550838573ffffffffffffffffffffffffffffffffffffffff168273ffffffffffffffffffffffffffffffffffffffff167fddf252ad1be2c89b69c2b068fc378daa952ba7f163c4a11628f55a4df523b3ef60405160405180910390a4809150509392505050565b606060006001611b1584611dfb565b01905060008167ffffffffffffffff811115611b3457611b336124a8565b5b6040519080825280601f01601f191660200182016040528015611b665781602001600182028036833780820191505090505b509050600082602001820190505b600115611bc9578080600190039150507f3031323334353637383961626364656600000000000000000000000000000000600a86061a8153600a8581611bbd57611bbc612c8b565b5b04945060008503611b74575b819350505050919050565b600073ffffffffffffffffffffffffffffffffffffffff168273ffffffffffffffffffffffffffffffffffffffff1603611c465760006040517f64a0ae92000000000000000000000000000000000000000000000000000000008152600401611c3d9190612234565b60405180910390fd5b6000611c5483836000610eef565b9050600073ffffffffffffffffffffffffffffffffffffffff168173ffffffffffffffffffffffffffffffffffffffff1614611cc85760006040517f73c6ac6e000000000000000000000000000000000000000000000000000000008152600401611cbf9190612234565b60405180910390fd5b505050565b60007f01ffc9a7000000000000000000000000000000000000000000000000000000007bffffffffffffffffffffffffffffffffffffffffffffffffffffffff1916827bffffffffffffffffffffffffffffffffffffffffffffffffffffffff1916149050919050565b611d42838383611f4e565b611df657600073ffffffffffffffffffffffffffffffffffffffff168373ffffffffffffffffffffffffffffffffffffffff1603611db757806040517f7e273289000000000000000000000000000000000000000000000000000000008152600401611dae9190612417565b60405180910390fd5b81816040517f177e802f000000000000000000000000000000000000000000000000000000008152600401611ded929190612cba565b60405180910390fd5b505050565b600080600090507a184f03e93ff9f4daa797ed6e38ed64bf6a1f0100000000000000008310611e59577a184f03e93ff9f4daa797ed6e38ed64bf6a1f0100000000000000008381611e4f57611e4e612c8b565b5b0492506040810190505b6d04ee2d6d415b85acef81000000008310611e96576d04ee2d6d415b85acef81000000008381611e8c57611e8b612c8b565b5b0492506020810190505b662386f26fc100008310611ec557662386f26fc100008381611ebb57611eba612c8b565b5b0492506010810190505b6305f5e1008310611eee576305f5e1008381611ee457611ee3612c8b565b5b0492506008810190505b6127108310611f13576127108381611f0957611f08612c8b565b5b0492506004810190505b60648310611f365760648381611f2c57611f2b612c8b565b5b0492506002810190505b600a8310611f45576001810190505b80915050919050565b60008073ffffffffffffffffffffffffffffffffffffffff168373ffffffffffffffffffffffffffffffffffffffff161415801561200657508273ffffffffffffffffffffffffffffffffffffffff168473ffffffffffffffffffffffffffffffffffffffff161480611fc75750611fc684846109a4565b5b8061200557508273ffffffffffffffffffffffffffffffffffffffff16611fed83610b3a565b73ffffffffffffffffffffffffffffffffffffffff16145b5b90509392505050565b6000604051905090565b600080fd5b600080fd5b60007fffffffff0000000000000000000000000000000000000000000000000000000082169050919050565b61205881612023565b811461206357600080fd5b50565b6000813590506120758161204f565b92915050565b60006020828403121561209157612090612019565b5b600061209f84828501612066565b91505092915050565b60008115159050919050565b6120bd816120a8565b82525050565b60006020820190506120d860008301846120b4565b92915050565b600081519050919050565b600082825260208201905092915050565b60005b838110156121185780820151818401526020810190506120fd565b60008484015250505050565b6000601f19601f8301169050919050565b6000612140826120de565b61214a81856120e9565b935061215a8185602086016120fa565b61216381612124565b840191505092915050565b600060208201905081810360008301526121888184612135565b905092915050565b6000819050919050565b6121a381612190565b81146121ae57600080fd5b50565b6000813590506121c08161219a565b92915050565b6000602082840312156121dc576121db612019565b5b60006121ea848285016121b1565b91505092915050565b600073ffffffffffffffffffffffffffffffffffffffff82169050919050565b600061221e826121f3565b9050919050565b61222e81612213565b82525050565b60006020820190506122496000830184612225565b92915050565b61225881612213565b811461226357600080fd5b50565b6000813590506122758161224f565b92915050565b6000806040838503121561229257612291612019565b5b60006122a085828601612266565b92505060206122b1858286016121b1565b9150509250929050565b6000806000606084860312156122d4576122d3612019565b5b60006122e286828701612266565b93505060206122f386828701612266565b9250506040612304868287016121b1565b9150509250925092565b6000819050919050565b6123218161230e565b811461232c57600080fd5b50565b60008135905061233e81612318565b92915050565b60006020828403121561235a57612359612019565b5b60006123688482850161232f565b91505092915050565b61237a8161230e565b82525050565b60006020820190506123956000830184612371565b92915050565b600080604083850312156123b2576123b1612019565b5b60006123c08582860161232f565b92505060206123d185828601612266565b9150509250929050565b6000602082840312156123f1576123f0612019565b5b60006123ff84828501612266565b91505092915050565b61241181612190565b82525050565b600060208201905061242c6000830184612408565b92915050565b61243b816120a8565b811461244657600080fd5b50565b60008135905061245881612432565b92915050565b6000806040838503121561247557612474612019565b5b600061248385828601612266565b925050602061249485828601612449565b9150509250929050565b600080fd5b600080fd5b7f4e487b7100000000000000000000000000000000000000000000000000000000600052604160045260246000fd5b6124e082612124565b810181811067ffffffffffffffff821117156124ff576124fe6124a8565b5b80604052505050565b600061251261200f565b905061251e82826124d7565b919050565b600067ffffffffffffffff82111561253e5761253d6124a8565b5b61254782612124565b9050602081019050919050565b82818337600083830152505050565b600061257661257184612523565b612508565b905082815260208101848484011115612592576125916124a3565b5b61259d848285612554565b509392505050565b600082601f8301126125ba576125b961249e565b5b81356125ca848260208601612563565b91505092915050565b600080600080608085870312156125ed576125ec612019565b5b60006125fb87828801612266565b945050602061260c87828801612266565b935050604061261d878288016121b1565b925050606085013567ffffffffffffffff81111561263e5761263d61201e565b5b61264a878288016125a5565b91505092959194509250565b600067ffffffffffffffff821115612671576126706124a8565b5b61267a82612124565b9050602081019050919050565b600061269a61269584612656565b612508565b9050828152602081018484840111156126b6576126b56124a3565b5b6126c1848285612554565b509392505050565b600082601f8301126126de576126dd61249e565b5b81356126ee848260208601612687565b91505092915050565b6000806040838503121561270e5761270d612019565b5b600061271c85828601612266565b925050602083013567ffffffffffffffff81111561273d5761273c61201e565b5b612749858286016126c9565b9150509250929050565b6000806040838503121561276a57612769612019565b5b600061277885828601612266565b925050602061278985828601612266565b9150509250929050565b7f4e487b7100000000000000000000000000000000000000000000000000000000600052602260045260246000fd5b600060028204905060018216806127da57607f821691505b6020821081036127ed576127ec612793565b5b50919050565b7f4e487b7100000000000000000000000000000000000000000000000000000000600052601160045260246000fd5b600061282d82612190565b91507fffffffffffffffffffffffffffffffffffffffffffffffffffffffffffffffff820361285f5761285e6127f3565b5b600182019050919050565b600060608201905061287f6000830186612225565b61288c6020830185612408565b6128996040830184612225565b949350505050565b600081519050919050565b600082825260208201905092915050565b60006128c8826128a1565b6128d281856128ac565b93506128e28185602086016120fa565b6128eb81612124565b840191505092915050565b600060808201905061290b6000830187612225565b6129186020830186612225565b6129256040830185612408565b818103606083015261293781846128bd565b905095945050505050565b6000815190506129518161204f565b92915050565b60006020828403121561296d5761296c612019565b5b600061297b84828501612942565b91505092915050565b600081905092915050565b600061299a826120de565b6129a48185612984565b93506129b48185602086016120fa565b80840191505092915050565b60006129cc828561298f565b91506129d8828461298f565b91508190509392505050565b60008190508160005260206000209050919050565b60006020601f8301049050919050565b600082821b905092915050565b600060088302612a467fffffffffffffffffffffffffffffffffffffffffffffffffffffffffffffffff82612a09565b612a508683612a09565b95508019841693508086168417925050509392505050565b6000819050919050565b6000612a8d612a88612a8384612190565b612a68565b612190565b9050919050565b6000819050919050565b612aa783612a72565b612abb612ab382612a94565b848454612a16565b825550505050565b600090565b612ad0612ac3565b612adb818484612a9e565b505050565b5b81811015612aff57612af4600082612ac8565b600181019050612ae1565b5050565b601f821115612b4457612b15816129e4565b612b1e846129f9565b81016020851015612b2d578190505b612b41612b39856129f9565b830182612ae0565b50505b505050565b600082821c905092915050565b6000612b6760001984600802612b49565b1980831691505092915050565b6000612b808383612b56565b9150826002028217905092915050565b612b99826120de565b67ffffffffffffffff811115612bb257612bb16124a8565b5b612bbc82546127c2565b612bc7828285612b03565b600060209050601f831160018114612bfa5760008415612be8578287015190505b612bf28582612b74565b865550612c5a565b601f198416612c08866129e4565b60005b82811015612c3057848901518255600182019150602085019450602081019050612c0b565b86831015612c4d5784890151612c49601f891682612b56565b8355505b6001600288020188555050505b505050505050565b6000604082019050612c776000830185612225565b612c846020830184612371565b9392505050565b7f4e487b7100000000000000000000000000000000000000000000000000000000600052601260045260246000fd5b6000604082019050612ccf6000830185612225565b612cdc6020830184612408565b939250505056fea26469706673582212200e1f9b17e5348aa389cf82a1abec50ae715b3b985157ff4b0cbe7c9d4c89199564736f6c634300081b0033",
  "linkReferences": {},
  "deployedLinkReferences": {}
}